{
  "_format": "hh-sol-artifact-1",
  "contractName": "FlightInsuranceFDC",
  "sourceName": "contracts/FlightInsurance.sol",
  "abi": [
    {
      "inputs": [
        {
          "internalType": "address",
          "name": "_payoutEngine",
          "type": "address"
        }
      ],
      "stateMutability": "nonpayable",
      "type": "constructor"
    },
    {
      "anonymous": false,
      "inputs": [
        {
          "indexed": false,
          "internalType": "uint256",
          "name": "id",
          "type": "uint256"
        },
        {
          "indexed": false,
          "internalType": "address",
          "name": "holder",
          "type": "address"
        }
      ],
      "name": "PolicyCreated",
      "type": "event"
    },
    {
      "anonymous": false,
      "inputs": [
        {
          "indexed": false,
          "internalType": "uint256",
          "name": "id",
          "type": "uint256"
        }
      ],
      "name": "PolicyExpired",
      "type": "event"
    },
    {
      "anonymous": false,
      "inputs": [
        {
          "indexed": false,
          "internalType": "uint256",
          "name": "id",
          "type": "uint256"
        },
        {
          "indexed": false,
          "internalType": "uint256",
          "name": "payout",
          "type": "uint256"
        }
      ],
      "name": "PolicyPaid",
      "type": "event"
    },
    {
      "inputs": [
        {
          "internalType": "uint256",
          "name": "expirationTime",
          "type": "uint256"
        },
        {
          "internalType": "uint256",
          "name": "minDelayMinutes",
          "type": "uint256"
        },
        {
          "internalType": "uint256",
          "name": "payoutAmount",
          "type": "uint256"
        },
        {
          "internalType": "bytes32[]",
          "name": "merkleProof",
          "type": "bytes32[]"
        }
      ],
      "name": "createPolicy",
      "outputs": [],
      "stateMutability": "payable",
      "type": "function"
    },
    {
      "inputs": [],
      "name": "payoutEngine",
      "outputs": [
        {
          "internalType": "contract PayoutEngine",
          "name": "",
          "type": "address"
        }
      ],
      "stateMutability": "view",
      "type": "function"
    },
    {
      "inputs": [
        {
          "internalType": "uint256",
          "name": "",
          "type": "uint256"
        }
      ],
      "name": "policies",
      "outputs": [
        {
          "internalType": "address",
          "name": "holder",
          "type": "address"
        },
        {
          "internalType": "uint256",
          "name": "premium",
          "type": "uint256"
        },
        {
          "internalType": "uint256",
          "name": "payout",
          "type": "uint256"
        },
        {
          "internalType": "uint256",
          "name": "startTime",
          "type": "uint256"
        },
        {
          "internalType": "uint256",
          "name": "expirationTime",
          "type": "uint256"
        },
        {
          "internalType": "uint256",
          "name": "minDelayMinutes",
          "type": "uint256"
        },
        {
          "internalType": "enum FlightInsuranceFDC.PolicyStatus",
          "name": "status",
          "type": "uint8"
        }
      ],
      "stateMutability": "view",
      "type": "function"
    },
    {
      "inputs": [],
      "name": "policyCount",
      "outputs": [
        {
          "internalType": "uint256",
          "name": "",
          "type": "uint256"
        }
      ],
      "stateMutability": "view",
      "type": "function"
    },
    {
      "inputs": [
        {
          "internalType": "uint256",
          "name": "",
          "type": "uint256"
        },
        {
          "internalType": "uint256",
          "name": "",
          "type": "uint256"
        }
      ],
      "name": "policyProofs",
      "outputs": [
        {
          "internalType": "bytes32",
          "name": "",
          "type": "bytes32"
        }
      ],
      "stateMutability": "view",
      "type": "function"
    },
    {
      "inputs": [
        {
          "internalType": "uint256",
          "name": "policyId",
          "type": "uint256"
        },
        {
          "components": [
            {
              "internalType": "bytes32[]",
              "name": "merkleProof",
              "type": "bytes32[]"
            },
            {
              "components": [
                {
                  "internalType": "bytes32",
                  "name": "attestationType",
                  "type": "bytes32"
                },
                {
                  "internalType": "bytes32",
                  "name": "sourceId",
                  "type": "bytes32"
                },
                {
                  "internalType": "uint64",
                  "name": "votingRound",
                  "type": "uint64"
                },
                {
                  "internalType": "uint64",
                  "name": "lowestUsedTimestamp",
                  "type": "uint64"
                },
                {
                  "components": [
                    {
                      "internalType": "string",
                      "name": "url",
                      "type": "string"
                    },
                    {
                      "internalType": "string",
                      "name": "httpMethod",
                      "type": "string"
                    },
                    {
                      "internalType": "string",
                      "name": "headers",
                      "type": "string"
                    },
                    {
                      "internalType": "string",
                      "name": "queryParams",
                      "type": "string"
                    },
                    {
                      "internalType": "string",
                      "name": "body",
                      "type": "string"
                    },
                    {
                      "internalType": "string",
                      "name": "postProcessJq",
                      "type": "string"
                    },
                    {
                      "internalType": "string",
                      "name": "abiSignature",
                      "type": "string"
                    }
                  ],
                  "internalType": "struct IWeb2Json.RequestBody",
                  "name": "requestBody",
                  "type": "tuple"
                },
                {
                  "components": [
                    {
                      "internalType": "bytes",
                      "name": "abiEncodedData",
                      "type": "bytes"
                    }
                  ],
                  "internalType": "struct IWeb2Json.ResponseBody",
                  "name": "responseBody",
                  "type": "tuple"
                }
              ],
              "internalType": "struct IWeb2Json.Response",
              "name": "data",
              "type": "tuple"
            }
          ],
          "internalType": "struct IWeb2Json.Proof",
          "name": "proof",
          "type": "tuple"
        }
      ],
      "name": "resolvePolicy",
      "outputs": [],
      "stateMutability": "nonpayable",
      "type": "function"
    },
    {
      "stateMutability": "payable",
      "type": "receive"
    }
  ],
  "bytecode": "0x6080604052348015600f57600080fd5b50604051610f7c380380610f7c833981016040819052602c916050565b600180546001600160a01b0319166001600160a01b0392909216919091179055607e565b600060208284031215606157600080fd5b81516001600160a01b0381168114607757600080fd5b9392505050565b610eef8061008d6000396000f3fe6080604052600436106100595760003560e01c806321776ca914610065578063664fda501461007a578063d3e89483146100ad578063de54d429146100e0578063e733fb3c146100f5578063ebba0b6a1461012d57600080fd5b3661006057005b600080fd5b610078610073366004610837565b61014d565b005b34801561008657600080fd5b5061009a6100953660046108c7565b6103dc565b6040519081526020015b60405180910390f35b3480156100b957600080fd5b506100cd6100c83660046108e9565b61040d565b6040516100a49796959493929190610918565b3480156100ec57600080fd5b5060005461009a565b34801561010157600080fd5b50600154610115906001600160a01b031681565b6040516001600160a01b0390911681526020016100a4565b34801561013957600080fd5b5061007861014836600461097b565b610469565b600034116101955760405162461bcd60e51b815260206004820152601060248201526f141c995b5a5d5b481c995c5d5a5c995960821b60448201526064015b60405180910390fd5b4285116101d55760405162461bcd60e51b815260206004820152600e60248201526d496e76616c69642065787069727960901b604482015260640161018c565b6040805160e081018252338152346020820190815291810185815242606083019081526080830189815260a08401898152600060c0860181815281546001808201845592805287517f290decd9548b62a8d60345a988386fc84ba6bc95484008f6362f93160ef3e563600790920291820180546001600160a01b0319166001600160a01b0390921691909117815598517f290decd9548b62a8d60345a988386fc84ba6bc95484008f6362f93160ef3e56482015595517f290decd9548b62a8d60345a988386fc84ba6bc95484008f6362f93160ef3e56587015593517f290decd9548b62a8d60345a988386fc84ba6bc95484008f6362f93160ef3e56686015591517f290decd9548b62a8d60345a988386fc84ba6bc95484008f6362f93160ef3e567850155517f290decd9548b62a8d60345a988386fc84ba6bc95484008f6362f93160ef3e56884015590517f290decd9548b62a8d60345a988386fc84ba6bc95484008f6362f93160ef3e5699092018054939493909160ff199091169083600281111561036657610366610902565b0217905550506000805490915061037f906001906109c9565b600081815260026020526040902090915061039b9084846107d7565b50604080518281523360208201527f692975d6d42aec50e0f6ff672acde3bf011e71355ed86dd49de0a1f533950cba910160405180910390a1505050505050565b600260205281600052604060002081815481106103f857600080fd5b90600052602060002001600091509150505481565b6000818154811061041d57600080fd5b600091825260209091206007909102018054600182015460028301546003840154600485015460058601546006909601546001600160a01b039095169650929491939092919060ff1687565b600080838154811061047d5761047d6109f0565b6000918252602082206007909102019150600682015460ff1660028111156104a7576104a7610902565b146104e15760405162461bcd60e51b815260206004820152600a6024820152694e6f742061637469766560b01b604482015260640161018c565b60006104eb610705565b6001600160a01b0316630aa05fe3846040518263ffffffff1660e01b81526004016105169190610c91565b602060405180830381865afa158015610533573d6000803e3d6000fd5b505050506040513d601f19601f820116820180604052508101906105579190610d2f565b90508061059a5760405162461bcd60e51b815260206004820152601160248201527024b73b30b634b21023222190383937b7b360791b604482015260640161018c565b60006105a96020850185610d58565b6105b79060a0810190610d78565b6105c19080610d8e565b8101906105ce9190610dd5565b905082600401544211156106265760068301805460ff191660021790556040518581527fb22aa541487fc93d989bb5b17d1e3a967f649c4979cfd658c0849e070ae0dca0906020015b60405180910390a15050505050565b60058301548151106106fe5760068301805460ff19166001908117909155548354600280860154600089815260209290925260409182902091516321c3df2560e01b81526001600160a01b03948516946321c3df2594610690949116928b92909190600401610e25565b600060405180830381600087803b1580156106aa57600080fd5b505af11580156106be573d6000803e3d6000fd5b50505060028401546040805188815260208101929092527fdccfb6cdd539178d75243e7fb1fedd422ff41be13d0cd4968b1c5294e4bc2b7f925001610617565b5050505050565b600073ad67fe66660fb8dfe9d6b1b4240d8650e30f60196001600160a01b031663159354a260405160200161075d906020808252600f908201526e233231ab32b934b334b1b0ba34b7b760891b604082015260600190565b604051602081830303815290604052805190602001206040518263ffffffff1660e01b815260040161079191815260200190565b602060405180830381865afa1580156107ae573d6000803e3d6000fd5b505050506040513d601f19601f820116820180604052508101906107d29190610e90565b905090565b828054828255906000526020600020908101928215610812579160200282015b828111156108125782358255916020019190600101906107f7565b5061081e929150610822565b5090565b5b8082111561081e5760008155600101610823565b60008060008060006080868803121561084f57600080fd5b853594506020860135935060408601359250606086013567ffffffffffffffff8082111561087c57600080fd5b818801915088601f83011261089057600080fd5b81358181111561089f57600080fd5b8960208260051b85010111156108b457600080fd5b9699959850939650602001949392505050565b600080604083850312156108da57600080fd5b50508035926020909101359150565b6000602082840312156108fb57600080fd5b5035919050565b634e487b7160e01b600052602160045260246000fd5b6001600160a01b03881681526020810187905260408101869052606081018590526080810184905260a0810183905260e081016003831061096957634e487b7160e01b600052602160045260246000fd5b8260c083015298975050505050505050565b6000806040838503121561098e57600080fd5b82359150602083013567ffffffffffffffff8111156109ac57600080fd5b8301604081860312156109be57600080fd5b809150509250929050565b818103818111156109ea57634e487b7160e01b600052601160045260246000fd5b92915050565b634e487b7160e01b600052603260045260246000fd5b6000823560be19833603018112610a1c57600080fd5b90910192915050565b803567ffffffffffffffff81168114610a3d57600080fd5b919050565b6000808335601e19843603018112610a5957600080fd5b830160208101925035905067ffffffffffffffff811115610a7957600080fd5b803603821315610a8857600080fd5b9250929050565b81835281816020850137506000828201602090810191909152601f909101601f19169091010190565b60008235601e19833603018112610a1c57600080fd5b6000610ada8283610a42565b60208552610aec602086018284610a8f565b95945050505050565b80358252602081013560208301526000610b1160408301610a25565b67ffffffffffffffff808216604086015280610b2f60608601610a25565b1660608601525050608082013560de19833603018112610b4e57600080fd5b60c060808501528201610b618180610a42565b60e060c0870152610b776101a087018284610a8f565b915050610b876020830183610a42565b60bf19808885030160e0890152610b9f848385610a8f565b9350610bae6040860186610a42565b935091508088850301610100890152610bc8848484610a8f565b9350610bd76060860186610a42565b935091508088850301610120890152610bf1848484610a8f565b9350610c006080860186610a42565b935091508088850301610140890152610c1a848484610a8f565b9350610c2960a0860186610a42565b935091508088850301610160890152610c43848484610a8f565b9350610c5260c0860186610a42565b9550925080888503016101808901525050610c6e828483610a8f565b92505050610c7f60a0840184610ab8565b84820360a0860152610aec8282610ace565b6020815260008235601e19843603018112610cab57600080fd5b830160208101903567ffffffffffffffff811115610cc857600080fd5b8060051b803603831315610cdb57600080fd5b60406020860152606085018290526001600160fb1b03821115610cfd57600080fd5b8083608087013784019150610d1790506020850185610a06565b6060848303016040850152610aec6080830182610af5565b600060208284031215610d4157600080fd5b81518015158114610d5157600080fd5b9392505050565b6000823560be19833603018112610d6e57600080fd5b9190910192915050565b60008235601e19833603018112610d6e57600080fd5b6000808335601e19843603018112610da557600080fd5b83018035915067ffffffffffffffff821115610dc057600080fd5b602001915036819003821315610a8857600080fd5b600060208284031215610de757600080fd5b6040516020810181811067ffffffffffffffff82111715610e1857634e487b7160e01b600052604160045260246000fd5b6040529135825250919050565b60006080820160018060a01b038716835260208660208501528560408501526080606085015281855480845260a086019150866000526020600020935060005b81811015610e8157845483526001948501949284019201610e65565b50909998505050505050505050565b600060208284031215610ea257600080fd5b81516001600160a01b0381168114610d5157600080fdfea2646970667358221220a03abb59d8f5ee07f3e86c2543fb6f58e5416ff6323aa50064194704c479f2ea64736f6c63430008190033",
  "linkReferences": {},
  "deployedLinkReferences": {}
}