{
  "_format": "hh-sol-artifact-1",
  "contractName": "FlightInsuranceFDC",
  "sourceName": "contracts/FlightInsurance.sol",
  "abi": [
    {
      "inputs": [
        {
          "internalType": "address",
          "name": "_payoutEngine",
          "type": "address"
        }
      ],
      "stateMutability": "nonpayable",
      "type": "constructor"
    },
    {
      "anonymous": false,
      "inputs": [
        {
          "indexed": true,
          "internalType": "uint256",
          "name": "id",
          "type": "uint256"
        },
        {
          "indexed": true,
          "internalType": "address",
          "name": "holder",
          "type": "address"
        }
      ],
      "name": "PolicyCreated",
      "type": "event"
    },
    {
      "anonymous": false,
      "inputs": [
        {
          "indexed": true,
          "internalType": "uint256",
          "name": "id",
          "type": "uint256"
        }
      ],
      "name": "PolicyExpired",
      "type": "event"
    },
    {
      "anonymous": false,
      "inputs": [
        {
          "indexed": true,
          "internalType": "uint256",
          "name": "id",
          "type": "uint256"
        },
        {
          "indexed": false,
          "internalType": "uint256",
          "name": "payout",
          "type": "uint256"
        }
      ],
      "name": "PolicyPaid",
      "type": "event"
    },
    {
      "inputs": [
        {
          "internalType": "uint256",
          "name": "expirationTime",
          "type": "uint256"
        },
        {
          "internalType": "uint256",
          "name": "minDelayMinutes",
          "type": "uint256"
        },
        {
          "internalType": "uint256",
          "name": "payoutAmount",
          "type": "uint256"
        }
      ],
      "name": "createPolicy",
      "outputs": [],
      "stateMutability": "payable",
      "type": "function"
    },
    {
      "inputs": [],
      "name": "payoutEngine",
      "outputs": [
        {
          "internalType": "contract PayoutEngine",
          "name": "",
          "type": "address"
        }
      ],
      "stateMutability": "view",
      "type": "function"
    },
    {
      "inputs": [
        {
          "internalType": "uint256",
          "name": "",
          "type": "uint256"
        }
      ],
      "name": "policies",
      "outputs": [
        {
          "internalType": "address",
          "name": "holder",
          "type": "address"
        },
        {
          "internalType": "uint256",
          "name": "premium",
          "type": "uint256"
        },
        {
          "internalType": "uint256",
          "name": "payout",
          "type": "uint256"
        },
        {
          "internalType": "uint256",
          "name": "startTime",
          "type": "uint256"
        },
        {
          "internalType": "uint256",
          "name": "expirationTime",
          "type": "uint256"
        },
        {
          "internalType": "uint256",
          "name": "minDelayMinutes",
          "type": "uint256"
        },
        {
          "internalType": "enum FlightInsuranceFDC.PolicyStatus",
          "name": "status",
          "type": "uint8"
        }
      ],
      "stateMutability": "view",
      "type": "function"
    },
    {
      "inputs": [],
      "name": "policyCount",
      "outputs": [
        {
          "internalType": "uint256",
          "name": "",
          "type": "uint256"
        }
      ],
      "stateMutability": "view",
      "type": "function"
    },
    {
      "inputs": [
        {
          "internalType": "uint256",
          "name": "policyId",
          "type": "uint256"
        },
        {
          "components": [
            {
              "internalType": "bytes32[]",
              "name": "merkleProof",
              "type": "bytes32[]"
            },
            {
              "components": [
                {
                  "internalType": "bytes32",
                  "name": "attestationType",
                  "type": "bytes32"
                },
                {
                  "internalType": "bytes32",
                  "name": "sourceId",
                  "type": "bytes32"
                },
                {
                  "internalType": "uint64",
                  "name": "votingRound",
                  "type": "uint64"
                },
                {
                  "internalType": "uint64",
                  "name": "lowestUsedTimestamp",
                  "type": "uint64"
                },
                {
                  "components": [
                    {
                      "internalType": "string",
                      "name": "url",
                      "type": "string"
                    },
                    {
                      "internalType": "string",
                      "name": "httpMethod",
                      "type": "string"
                    },
                    {
                      "internalType": "string",
                      "name": "headers",
                      "type": "string"
                    },
                    {
                      "internalType": "string",
                      "name": "queryParams",
                      "type": "string"
                    },
                    {
                      "internalType": "string",
                      "name": "body",
                      "type": "string"
                    },
                    {
                      "internalType": "string",
                      "name": "postProcessJq",
                      "type": "string"
                    },
                    {
                      "internalType": "string",
                      "name": "abiSignature",
                      "type": "string"
                    }
                  ],
                  "internalType": "struct IWeb2Json.RequestBody",
                  "name": "requestBody",
                  "type": "tuple"
                },
                {
                  "components": [
                    {
                      "internalType": "bytes",
                      "name": "abiEncodedData",
                      "type": "bytes"
                    }
                  ],
                  "internalType": "struct IWeb2Json.ResponseBody",
                  "name": "responseBody",
                  "type": "tuple"
                }
              ],
              "internalType": "struct IWeb2Json.Response",
              "name": "data",
              "type": "tuple"
            }
          ],
          "internalType": "struct IWeb2Json.Proof",
          "name": "proof",
          "type": "tuple"
        },
        {
          "internalType": "bytes32[]",
          "name": "merkleProof",
          "type": "bytes32[]"
        }
      ],
      "name": "resolvePolicy",
      "outputs": [],
      "stateMutability": "nonpayable",
      "type": "function"
    },
    {
      "stateMutability": "payable",
      "type": "receive"
    }
  ],
  "bytecode": "0x6080604052348015600f57600080fd5b50604051610e3e380380610e3e833981016040819052602c916050565b600180546001600160a01b0319166001600160a01b0392909216919091179055607e565b600060208284031215606157600080fd5b81516001600160a01b0381168114607757600080fd5b9392505050565b610db18061008d6000396000f3fe60806040526004361061004e5760003560e01c8063d0ab9a891461005a578063d3e894831461006f578063d4405754146100ab578063de54d429146100cb578063e733fb3c146100e957600080fd5b3661005557005b600080fd5b61006d610068366004610740565b610121565b005b34801561007b57600080fd5b5061008f61008a36600461076c565b610380565b6040516100a2979695949392919061079b565b60405180910390f35b3480156100b757600080fd5b5061006d6100c63660046107fe565b6103dc565b3480156100d757600080fd5b506000546040519081526020016100a2565b3480156100f557600080fd5b50600154610109906001600160a01b031681565b6040516001600160a01b0390911681526020016100a2565b600034116101695760405162461bcd60e51b815260206004820152601060248201526f141c995b5a5d5b481c995c5d5a5c995960821b60448201526064015b60405180910390fd5b4283116101a95760405162461bcd60e51b815260206004820152600e60248201526d496e76616c69642065787069727960901b6044820152606401610160565b6040805160e081018252338152346020820190815291810183815242606083019081526080830187815260a08401878152600060c0860181815281546001808201845592805287517f290decd9548b62a8d60345a988386fc84ba6bc95484008f6362f93160ef3e563600790920291820180546001600160a01b0319166001600160a01b0390921691909117815598517f290decd9548b62a8d60345a988386fc84ba6bc95484008f6362f93160ef3e56482015595517f290decd9548b62a8d60345a988386fc84ba6bc95484008f6362f93160ef3e56587015593517f290decd9548b62a8d60345a988386fc84ba6bc95484008f6362f93160ef3e56686015591517f290decd9548b62a8d60345a988386fc84ba6bc95484008f6362f93160ef3e567850155517f290decd9548b62a8d60345a988386fc84ba6bc95484008f6362f93160ef3e56884015590517f290decd9548b62a8d60345a988386fc84ba6bc95484008f6362f93160ef3e5699092018054939493909160ff199091169083600281111561033a5761033a610785565b021790555050600054339150610352906001906108a4565b6040517f692975d6d42aec50e0f6ff672acde3bf011e71355ed86dd49de0a1f533950cba90600090a3505050565b6000818154811061039057600080fd5b600091825260209091206007909102018054600182015460028301546003840154600485015460058601546006909601546001600160a01b039095169650929491939092919060ff1687565b60008085815481106103f0576103f06108cb565b6000918252602082206007909102019150600682015460ff16600281111561041a5761041a610785565b1461045b5760405162461bcd60e51b8152602060048201526011602482015270506f6c696379206e6f742061637469766560781b6044820152606401610160565b600061046561066e565b6001600160a01b0316630aa05fe3866040518263ffffffff1660e01b81526004016104909190610b88565b602060405180830381865afa1580156104ad573d6000803e3d6000fd5b505050506040513d601f19601f820116820180604052508101906104d19190610c23565b9050806105145760405162461bcd60e51b815260206004820152601160248201527024b73b30b634b21023222190383937b7b360791b6044820152606401610160565b60006105236020870187610c4c565b6105319060a0810190610c6c565b61053b9080610c82565b8101906105489190610cc9565b905082600401544211156105985760068301805460ff1916600217905560405187907fb22aa541487fc93d989bb5b17d1e3a967f649c4979cfd658c0849e070ae0dca090600090a2505050610668565b60058301548151106106645760068301805460ff1916600190811790915554835460028501546040516321c3df2560e01b81526001600160a01b03938416936321c3df25936105f3939116918c91908b908b90600401610d19565b600060405180830381600087803b15801561060d57600080fd5b505af1158015610621573d6000803e3d6000fd5b50505050867fdccfb6cdd539178d75243e7fb1fedd422ff41be13d0cd4968b1c5294e4bc2b7f846002015460405161065b91815260200190565b60405180910390a25b5050505b50505050565b600073ad67fe66660fb8dfe9d6b1b4240d8650e30f60196001600160a01b031663159354a26040516020016106c6906020808252600f908201526e233231ab32b934b334b1b0ba34b7b760891b604082015260600190565b604051602081830303815290604052805190602001206040518263ffffffff1660e01b81526004016106fa91815260200190565b602060405180830381865afa158015610717573d6000803e3d6000fd5b505050506040513d601f19601f8201168201806040525081019061073b9190610d52565b905090565b60008060006060848603121561075557600080fd5b505081359360208301359350604090920135919050565b60006020828403121561077e57600080fd5b5035919050565b634e487b7160e01b600052602160045260246000fd5b6001600160a01b03881681526020810187905260408101869052606081018590526080810184905260a0810183905260e08101600383106107ec57634e487b7160e01b600052602160045260246000fd5b8260c083015298975050505050505050565b6000806000806060858703121561081457600080fd5b84359350602085013567ffffffffffffffff8082111561083357600080fd5b908601906040828903121561084757600080fd5b9093506040860135908082111561085d57600080fd5b818701915087601f83011261087157600080fd5b81358181111561088057600080fd5b8860208260051b850101111561089557600080fd5b95989497505060200194505050565b818103818111156108c557634e487b7160e01b600052601160045260246000fd5b92915050565b634e487b7160e01b600052603260045260246000fd5b81835260006001600160fb1b038311156108fa57600080fd5b8260051b80836020870137939093016020019392505050565b803567ffffffffffffffff8116811461092b57600080fd5b919050565b6000808335601e1984360301811261094757600080fd5b830160208101925035905067ffffffffffffffff81111561096757600080fd5b80360382131561097657600080fd5b9250929050565b81835281816020850137506000828201602090810191909152601f909101601f19169091010190565b60008235601e198336030181126109bc57600080fd5b90910192915050565b60006109d18283610930565b602085526109e360208601828461097d565b95945050505050565b80358252602081013560208301526000610a0860408301610913565b67ffffffffffffffff808216604086015280610a2660608601610913565b1660608601525050608082013560de19833603018112610a4557600080fd5b60c060808501528201610a588180610930565b60e060c0870152610a6e6101a08701828461097d565b915050610a7e6020830183610930565b60bf19808885030160e0890152610a9684838561097d565b9350610aa56040860186610930565b935091508088850301610100890152610abf84848461097d565b9350610ace6060860186610930565b935091508088850301610120890152610ae884848461097d565b9350610af76080860186610930565b935091508088850301610140890152610b1184848461097d565b9350610b2060a0860186610930565b935091508088850301610160890152610b3a84848461097d565b9350610b4960c0860186610930565b9550925080888503016101808901525050610b6582848361097d565b92505050610b7660a08401846109a6565b84820360a08601526109e382826109c5565b6020815260008235833603601e1981018212610ba357600080fd5b6020918501918201913567ffffffffffffffff811115610bc257600080fd5b8060051b3603831315610bd457600080fd5b60406020860152610be96060860182856108e1565b925050602085013560be1982018112610c0157600080fd5b848303601f19016040860152610c19838288016109ec565b9695505050505050565b600060208284031215610c3557600080fd5b81518015158114610c4557600080fd5b9392505050565b6000823560be19833603018112610c6257600080fd5b9190910192915050565b60008235601e19833603018112610c6257600080fd5b6000808335601e19843603018112610c9957600080fd5b83018035915067ffffffffffffffff821115610cb457600080fd5b60200191503681900382131561097657600080fd5b600060208284031215610cdb57600080fd5b6040516020810181811067ffffffffffffffff82111715610d0c57634e487b7160e01b600052604160045260246000fd5b6040529135825250919050565b60018060a01b0386168152846020820152836040820152608060608201526000610d476080830184866108e1565b979650505050505050565b600060208284031215610d6457600080fd5b81516001600160a01b0381168114610c4557600080fdfea2646970667358221220fd6f695a0165c8ff7adbb9f65698128d3e387ac27224bbf40f4c9178f30146a264736f6c63430008190033",
  "linkReferences": {},
  "deployedLinkReferences": {}
}