{
  "_format": "hh-sol-artifact-1",
  "contractName": "PayoutEngine",
  "sourceName": "contracts/PayoutEngine.sol",
  "abi": [
    {
      "inputs": [
        {
          "internalType": "address",
          "name": "_token",
          "type": "address"
        }
      ],
      "stateMutability": "nonpayable",
      "type": "constructor"
    },
    {
      "anonymous": false,
      "inputs": [
        {
          "indexed": true,
          "internalType": "address",
          "name": "user",
          "type": "address"
        },
        {
          "indexed": false,
          "internalType": "uint256",
          "name": "amount",
          "type": "uint256"
        }
      ],
      "name": "Claimed",
      "type": "event"
    },
    {
      "anonymous": false,
      "inputs": [
        {
          "indexed": false,
          "internalType": "bytes32",
          "name": "root",
          "type": "bytes32"
        }
      ],
      "name": "MerkleRootUpdated",
      "type": "event"
    },
    {
      "inputs": [],
      "name": "admin",
      "outputs": [
        {
          "internalType": "address",
          "name": "",
          "type": "address"
        }
      ],
      "stateMutability": "view",
      "type": "function"
    },
    {
      "inputs": [
        {
          "internalType": "address",
          "name": "user",
          "type": "address"
        },
        {
          "internalType": "uint256",
          "name": "policyId",
          "type": "uint256"
        },
        {
          "internalType": "uint256",
          "name": "amount",
          "type": "uint256"
        },
        {
          "internalType": "bytes32[]",
          "name": "proof",
          "type": "bytes32[]"
        }
      ],
      "name": "claimPayout",
      "outputs": [],
      "stateMutability": "nonpayable",
      "type": "function"
    },
    {
      "inputs": [
        {
          "internalType": "bytes32",
          "name": "",
          "type": "bytes32"
        }
      ],
      "name": "claimed",
      "outputs": [
        {
          "internalType": "bool",
          "name": "",
          "type": "bool"
        }
      ],
      "stateMutability": "view",
      "type": "function"
    },
    {
      "inputs": [],
      "name": "merkleRoot",
      "outputs": [
        {
          "internalType": "bytes32",
          "name": "",
          "type": "bytes32"
        }
      ],
      "stateMutability": "view",
      "type": "function"
    },
    {
      "inputs": [
        {
          "internalType": "bytes32",
          "name": "_root",
          "type": "bytes32"
        }
      ],
      "name": "setMerkleRoot",
      "outputs": [],
      "stateMutability": "nonpayable",
      "type": "function"
    },
    {
      "inputs": [],
      "name": "token",
      "outputs": [
        {
          "internalType": "contract IERC20",
          "name": "",
          "type": "address"
        }
      ],
      "stateMutability": "view",
      "type": "function"
    }
  ],
  "bytecode": "0x6080604052348015600f57600080fd5b50604051610642380380610642833981016040819052602c916059565b600080546001600160a01b039092166001600160a01b031992831617905560028054909116331790556087565b600060208284031215606a57600080fd5b81516001600160a01b0381168114608057600080fd5b9392505050565b6105ac806100966000396000f3fe608060405234801561001057600080fd5b50600436106100625760003560e01c806321c3df25146100675780632eb4a7ab1461007c5780637cb6475914610098578063cc3c0f06146100ab578063f851a440146100de578063fc0c546a14610109575b600080fd5b61007a610075366004610480565b61011c565b005b61008560015481565b6040519081526020015b60405180910390f35b61007a6100a6366004610525565b610234565b6100ce6100b9366004610525565b60036020526000908152604090205460ff1681565b604051901515815260200161008f565b6002546100f1906001600160a01b031681565b6040516001600160a01b03909116815260200161008f565b6000546100f1906001600160a01b031681565b61012985858585856102b5565b5060005460405163a9059cbb60e01b81526001600160a01b038781166004830152602482018690529091169063a9059cbb906044016020604051808303816000875af115801561017d573d6000803e3d6000fd5b505050506040513d601f19601f820116820180604052508101906101a1919061053e565b6101ea5760405162461bcd60e51b8152602060048201526015602482015274151bdad95b881d1c985b9cd9995c8819985a5b1959605a1b60448201526064015b60405180910390fd5b846001600160a01b03167fd8138f8a3f377c5259ca548e70e4c2de94f129f5a11036a15b69513cba2b426a8460405161022591815260200190565b60405180910390a25050505050565b6002546001600160a01b0316331461027a5760405162461bcd60e51b81526020600482015260096024820152682737ba1030b236b4b760b91b60448201526064016101e1565b60018190556040518181527f90004c04698bc3322499a575ed3752dd4abf33e0a7294c06a787a0fe01bea9419060200160405180910390a150565b6040516bffffffffffffffffffffffff19606087901b166020820152603481018590526054810184905260009060740160408051601f1981840301815291815281516020928301206000818152600390935291205490915060ff161561034f5760405162461bcd60e51b815260206004820152600f60248201526e105b1c9958591e4818db185a5b5959608a1b60448201526064016101e1565b6103908383808060200260200160405190810160405280939291908181526020018383602002808284376000920191909152505060015491508490506103f5565b6103d35760405162461bcd60e51b815260206004820152601460248201527324b73b30b634b21026b2b935b63290383937b7b360611b60448201526064016101e1565b6000818152600360205260409020805460ff1916600117905595945050505050565b600082610402858461040b565b14949350505050565b600081815b84518110156104465761043c8286838151811061042f5761042f610560565b602002602001015161044e565b9150600101610410565b509392505050565b600081831061046a576000828152602084905260409020610479565b60008381526020839052604090205b9392505050565b60008060008060006080868803121561049857600080fd5b85356001600160a01b03811681146104af57600080fd5b94506020860135935060408601359250606086013567ffffffffffffffff808211156104da57600080fd5b818801915088601f8301126104ee57600080fd5b8135818111156104fd57600080fd5b8960208260051b850101111561051257600080fd5b9699959850939650602001949392505050565b60006020828403121561053757600080fd5b5035919050565b60006020828403121561055057600080fd5b8151801515811461047957600080fd5b634e487b7160e01b600052603260045260246000fdfea26469706673582212202713acc87a486ffa59f83e1dac770d7a3bfa9b43090514ff580e1814da94e73b64736f6c63430008190033",
  "linkReferences": {},
  "deployedLinkReferences": {}
}